:020000040000FA
:060000000A128A110C280F
:10000800FE00030EF1000A08F2000A128A119C2968
:100018000A128A110F280A128A1127220A128A1133
:10002800FA00B401F801F90183010A128A111C28A7
:100038000A128A11EC200A128A1183120313340857
:1000480099000A128A111E220A128A11EC30F30052
:100058000030F4000A128A110B220A128A11D030D9
:10006800F3000030F4000A128A110B220A128A11D6
:100078000A128A1115220A128A11023083120313F6
:10008800B3000430B200B930B100B10B4928B20B4B
:100098004928B30B492850280A128A111E220A122D
:1000A8008A11ED30F3000030F4000A128A110B2295
:1000B8000A128A110030F300F4000A128A11CF21C3
:1000C8000A128A11730883120313B1003108B400AD
:1000D8000A128A1115220A128A1102308312031396
:1000E800B3000430B200B930B100B10B7928B20BBB
:1000F8007928B30B7928802821280A128A110C281C
:10010800003083120313AB000030AA000030A900AE
:100118000030A8002308220421042004031995288C
:100128009628E328AC01AC0AA6280130F300031096
:10013800A00DA10DA20DA30DF30B9B280130F30018
:100148007308AC07A31FA928AA2899280130F3002F
:100158000310A80DA90DAA0DAB0DF30BAC282308AD
:100168002702031DC12822082602031DC1282108D1
:100178002502031DC12820082402031CC428C52801
:10018800D4282008A4022108031C210FA502220854
:10019800031C220FA6022308031C230FA7022814FE
:1001A80001300310A30CA20CA10CA00CFF3E031DF0
:1001B800D5280130AC02031DE228E328AA282B0821
:1001C800A3002A08A2002908A1002808A000080006
:1001D8008316031788018901831603138501860195
:1001E800870187110717871788018901831203136D
:1001F800860189010030B0000030AF000030AE0049
:100208000930AD000A128A112F210A128A118316A9
:100218000313181583160317871119308316031350
:10022800990098161812831203139817831603134C
:1002380018138312031318161813831603138C1636
:100248000C12831203138C128B170A128A1169215C
:100258000A128A11080028308312031394008316A7
:1002680003139101831203132D08F4002E08F500DF
:100278002F08F6003008F70002300310F40DF50DD2
:10028800F60DF70DFF3E031D41297708A3007608F8
:10029800A2007508A1007408A0000030A7003D3036
:1002A800A6000930A5000030A4000A128A11842093
:1002B8000A128A11831203132008FF3E83160313C0
:1002C800930094018715071608001A30F5005E3070
:1002D800F4006E30F300F30B6F29F40B6F29F50B64
:1002E8006F29000001308312031389001F30F500C5
:1002F8007130F4001E30F300F30B8029F40B8029D1
:10030800F50B8029000002308312031389001F3087
:10031800F5007130F4001E30F300F30B9129F40B53
:100328009129F50B91290000831203138901080014
:10033800831203138C1EA129A229A7298C121A083B
:10034800F0007008F8000A307806031DAC29AD29C2
:10035800AF298901C8290B307806031DB429B529AE
:10036800B82901308900C8290C307806031DBD2939
:10037800BE29BF29AD290D307806031DC429C5291A
:10038800C82902308900C82972088A00710E8300C2
:10039800FE0E7E0E09000A128A11FE210A128A1127
:1003A8008316031391150A128A11FE210A128A1163
:1003B800831203131308F500F6017508A0007608E8
:1003C800A1000A128A11FE210A128A117308740404
:1003D8000319EF29F329831603139116F6298316B7
:1003E800031391121116831203132108F400200835
:1003F800F3000800831603131419032A042AFE299C
:1004080011081F39031D092A0A2AFE2908000A12A1
:100418008A11FE210A128A117308831203139300AA
:1004280008000A128A11FE210A128A118316031380
:10043800111508000A128A11FE210A128A11831660
:08044800031311140800EC3449
:04400E00D420FF3F7C
:00000001FF
